:100000000C942A000C943F000C943F000C943F0089
:100010000C943F000C943F000C943F000C943F0064
:100020000C943F000C943F000C943F000C943F0054
:100030000C943F000C943F000C943F000C943F0044
:100040000C943F000C943F000C943F000C943F0034
:100050000C943F0011241FBECFE5D8E0DEBFCDBF1A
:1000600010E0A0E6B0E0E8E5F1E302C005900D92F3
:10007000A63DB107D9F70E9481140C94AA180C94DC
:10008000000000C0FFCFEF92FF920F931F937B0100
:100090008C0120E030E040E05FE40E94EF03882321
:1000A0008CF0C801B70120E030E040E05FE40E943E
:1000B000BB010E944F049B01AC01205030404040E6
:1000C000504806C0C801B7010E944F049B01AC0113
:1000D000B901CA011F910F91FF90EF900895A0E020
:1000E000B0E0E5E7F0E00C947318DC012B01FA01B5
:1000F0009C91923008F439C1EB018881823008F478
:1001000033C1943069F4843009F02FC111969C9169
:1001100011978981981709F428C1AAEAB0E025C18E
:10012000843009F421C18230A9F4923009F01DC154
:100130009A01AD0188E0EA010990AE01E901099256
:100140009E018150C1F7E201898111969C9189231A
:10015000818308C1923009F407C112962D903C901A
:100160001397EB018A819B811496AD90BD90CD9041
:10017000DC901797EC80FD800E811F819101281B78
:10018000390BB90137FF04C066277727621B730B51
:10019000603271050CF061C0121613066CF5370160
:1001A0004801062E04C096948794779467940A9425
:1001B000D2F721E030E040E050E004C0220F331FCE
:1001C000441F551F6A95D2F721503040404050409F
:1001D0002E213F2140235123211531054105510591
:1001E00021F021E030E040E050E079018A01E6288A
:1001F000F728082919293CC0232BD1F1260E371ED8
:1002000035014601062E04C096948794779467942E
:100210000A94D2F721E030E040E050E004C0220F21
:10022000331F441F551F6A95D2F72150304040407C
:1002300050402A213B214C215D21211531054105EA
:10024000510521F021E030E040E050E059016A0121
:10025000A628B728C828D9280BC0821593052CF0EA
:100260001C01AA24BB24650103C0EE24FF248701DE
:1002700011969C91D20111968C91981709F445C062
:10028000992339F0A80197012A193B094C095D0906
:1002900006C0A60195012E193F09400B510B57FDD1
:1002A00008C0118233822282248335834683578398
:1002B0001DC081E081833382228288279927DC0157
:1002C000821B930BA40BB50B84839583A683B78302
:1002D0000DC0220F331F441F551F248335834683CF
:1002E000578382819381019793838283248135810F
:1002F00046815781DA01C9010197A109B1098F5FD0
:100300009F4FAF4FBF4328F30BC0918333822282AC
:10031000EA0CFB1C0C1D1D1DE482F582068317836D
:1003200083E08083248135814681578157FF1AC03D
:10033000C901AA2797FDA095BA2F81709070A0706F
:10034000B0705695479537952795822B932BA42B04
:10035000B52B84839583A683B7838281938101968D
:1003600093838283DF0101C0D201CD01CDB7DEB717
:10037000E2E10C948F18A0E2B0E0E1ECF1E00C9423
:100380007F1869837A838B839C832D833E834F837D
:100390005887E9E0EE2EF12CEC0EFD1ECE01019601
:1003A000B7010E9478058E010F5E1F4FCE010596A2
:1003B000B8010E9478058A8991E089278A8BC70154
:1003C000B801AE01475E5F4F0E946F000E94A30418
:1003D000A096E6E00C949B18A0E2B0E0E2EFF1E01A
:1003E0000C947F1869837A838B839C832D833E834F
:1003F0004F835887F9E0EF2EF12CEC0EFD1ECE0155
:100400000196B7010E9478058E010F5E1F4FCE0145
:100410000596B8010E947805C701B801AE01475E94
:100420005F4F0E946F000E94A304A096E6E00C9428
:100430009B18A0E2B0E0EFE1F2E00C94731869833E
:100440007A838B839C832D833E834F835887CE0191
:100450000196BE01675F7F4F0E947805CE01059629
:10046000BE016F5E7F4F0E9478059985923088F0BB
:1004700089898230C8F0943019F4823051F404C074
:10048000843029F4923081F48AEA90E0C6C0923038
:1004900049F420E09A858A89981321E02A87CE01C1
:1004A0000996BBC0823049F420E09A858A89981366
:1004B00021E02A8BCE014196B0C02D843E844F842A
:1004C00058886D887E888F88988CEE24FF24870159
:1004D000AA24BB24650140E050E060E070E0E0E069
:1004E000F0E0C10181709070892BE9F0E60CF71CF7
:1004F000081D191D9A01AB012A0D3B1D4C1D5D1DE8
:1005000080E090E0A0E0B0E0E614F70408051905EB
:1005100020F481E090E0A0E0B0E0BA01A901480F2A
:10052000591F6A1F7B1FAA0CBB1CCC1CDD1C97FE2D
:1005300008C081E090E0A0E0B0E0A82AB92ACA2A69
:10054000DB2A3196E032F10549F0660C771C881CF5
:10055000991C5694479437942794C3CFFA85EA8917
:100560002B893C898B859C85280F391F2E5F3F4F37
:1005700017C0CA0181709070892B61F0169507959C
:10058000F794E79480E090E0A0E0B0E8E82AF92A48
:100590000A2B1B2B76956795579547952F5F3F4FF5
:1005A00077FDE7CF0CC0440F551F661F771F17FD5F
:1005B0004160EE0CFF1C001F111F215030404030E5
:1005C00090E0590790E0690790E4790760F32B8F7A
:1005D0003C8FDB01CA018F779070A070B0708034BF
:1005E0009105A105B10561F447FD0AC0E114F104CC
:1005F0000105110529F0405C5F4F6F4F7F4F407838
:100600001A8EFE1711F081E08A8F4D8F5E8F6F8FEB
:1006100078A383E0898FCE0149960E94A304A09617
:10062000E2E10C948F18A8E1B0E0E9E1F3E00C946A
:100630007B1869837A838B839C832D833E834F83CE
:100640005887B9E0EB2EF12CEC0EFD1ECE01019681
:10065000B7010E9478058E010F5E1F4FCE010596EF
:10066000B8010E9478052985223008F47EC03989B6
:10067000323010F4B8017CC08A859A8989278A872C
:10068000243011F0223031F4231709F06EC06AEAE9
:1006900070E06EC0343039F41D861E861F86188ABD
:1006A0001C861B8604C0323021F484E08987B701A0
:1006B0005FC02B853C858B899C89281B390B3C8727
:1006C0002B87ED84FE840F851889AD88BE88CF887E
:1006D000D88CEA14FB040C051D0540F4EE0CFF1C3D
:1006E000001F111F215030403C872B8720E030E055
:1006F00040E050E080E090E0A0E0B0E460E070E036
:10070000EA14FB040C051D0540F0282B392B4A2B5D
:100710005B2BEA18FB080C091D09B695A795979560
:100720008795EE0CFF1C001F111F6F5F7F4F6F310D
:10073000710531F7DA01C9018F779070A070B07040
:1007400080349105A105B10561F427FD0AC0E114CB
:10075000F1040105110529F0205C3F4F4F4F5F4F19
:1007600020782D873E874F87588BBE01675F7F4F6C
:10077000CB010E94A3046896EAE00C949718A8E1C4
:10078000B0E0E5ECF3E00C947F1869837A838B8307
:100790009C832D833E834F83588789E0E82EF12C7C
:1007A000EC0EFD1ECE010196B7010E9478058E0168
:1007B0000F5E1F4FCE010596B8010E94780589850E
:1007C000823040F08989823028F0C701B8010E9448
:1007D000F00501C08FEF6896E6E00C949B18A8E145
:1007E000B0E0E5EFF3E00C947F1869837A838B83A4
:1007F0009C832D833E834F83588789E0E82EF12C1C
:10080000EC0EFD1ECE010196B7010E9478058E0107
:100810000F5E1F4FCE010596B8010E9478058985AD
:10082000823040F08989823028F0C701B8010E94E7
:10083000F00501C08FEF6896E6E00C949B18A8E1E4
:10084000B0E0E5E2F4E00C947F1869837A838B834F
:100850009C832D833E834F83588789E0E82EF12CBB
:10086000EC0EFD1ECE010196B7010E9478058E01A7
:100870000F5E1F4FCE010596B8010E94780589854D
:10088000823040F08989823028F0C701B8010E9487
:10089000F00501C081E06896E6E00C949B18ACE09E
:1008A000B0E0E5E5F4E00C94831869837A838B83E8
:1008B0009C83CE010196BE016B5F7F4F0E9478053D
:1008C0008D81823061F1823050F1843021F48E814B
:1008D000882351F12EC02F81388537FD20C06E81CD
:1008E0002F3131051CF06623F9F023C08EE190E032
:1008F000821B930B29853A854B855C8504C05695F0
:100900004795379527958A95D2F76623B1F050958C
:100910004095309521953F4F4F4F5F4F0EC020E0DF
:1009200030E040E050E009C02FEF3FEF4FEF5FE7CE
:1009300004C020E030E040E050E8B901CA012C9644
:10094000E2E00C949F18DF92EF92FF920F931F93B7
:10095000FC01E480F58006811781D180808182309E
:1009600048F480E090E0A0E1B0E0E82AF92A0A2B00
:100970001B2BA5C0843009F49FC0823021F4EE24E3
:10098000FF24870105C0E114F1040105110519F4E4
:10099000E0E0F0E096C0628173819FEF62387907F2
:1009A0000CF05BC022E83FEF261B370B2A313105E4
:1009B0002CF020E030E040E050E02AC0B801A70170
:1009C000022E04C076956795579547950A94D2F7FD
:1009D00081E090E0A0E0B0E004C0880F991FAA1F5A
:1009E000BB1F2A95D2F70197A109B1098E219F213A
:1009F000A023B1230097A105B10521F081E090E08B
:100A0000A0E0B0E09A01AB01282B392B4A2B5B2BDD
:100A1000DA01C9018F779070A070B07080349105B1
:100A2000A105B10539F427FF09C0205C3F4F4F4FA6
:100A30005F4F04C0215C3F4F4F4F5F4FE0E0F0E05D
:100A40002030A0E03A07A0E04A07A0E45A0710F0DF
:100A5000E1E0F0E079018A0127C06038710564F5B2
:100A6000FB01E158FF4FD801C7018F779070A0704C
:100A7000B07080349105A105B10539F4E7FE0DC0D1
:100A800080E490E0A0E0B0E004C08FE390E0A0E05C
:100A9000B0E0E80EF91E0A1F1B1F17FF05C01695D0
:100AA0000795F794E794319687E016950795F794A4
:100AB000E7948A95D1F705C0EE24FF248701EFEF74
:100AC000F0E06E2F679566276795902F9F77D794F4
:100AD000DD24D7948E2F8695492F462B582F5D29DC
:100AE000B701CA011F910F91FF90EF90DF90089519
:100AF000FC01DB01408151812281622F6F7770E020
:100B0000221F2227221F9381892F880F822B282FB3
:100B100030E0991F9927991F11969C9311972115E1
:100B20003105A9F5411551056105710511F482E002
:100B300037C082E89FEF13969C938E9312979A0189
:100B4000AB0167E0220F331F441F551F6A95D1F791
:100B500083E08C930DC0220F331F441F551F129644
:100B60008D919C911397019713969C938E93129756
:100B7000203080E0380780E0480780E4580758F3C9
:100B800014962D933D934D935C93179708952F3FA3
:100B9000310579F4411551056105710519F484E0B9
:100BA0008C93089564FF03C081E08C9312C01C9263
:100BB00010C02F57304013963C932E93129783E02A
:100BC0008C9387E0440F551F661F771F8A95D1F7D6
:100BD000706414964D935D936D937C93179708956D
:100BE0001F93DC01FB019C91923008F447C0808187
:100BF000823008F443C0943051F411961C91843033
:100C000099F58181682F70E0611B71093FC08430C4
:100C100021F0923031F48230B9F18181882389F159
:100C20002DC011961C9111978230F1F08181181717
:100C3000D9F412962D913C9113978281938182175A
:100C4000930794F028173907BCF014968D919D9165
:100C50000D90BC91A02D24813581468157812817A4
:100C600039074A075B0718F4112341F00AC08217BD
:100C70009307A407B50740F4112319F061E070E071
:100C800005C06FEF7FEF02C060E070E0CB011F9105
:100C90000895DF93CF93CDB7DEB729970FB6F894B9
:100CA000DEBF0FBECDBF89836A834B838B81282F24
:100CB00030E03987288788859985009709F475C0C1
:100CC000288539852130310509F0E2C08981282F36
:100CD00030E03F832E838E819F818130910549F1E1
:100CE0002E813F81223031052CF48E819F81009727
:100CF00061F0CEC02E813F812230310571F18E81AD
:100D00009F8183309105E9F1C3C0AAE3B0E0EAE333
:100D1000F0E08081482F8A81282F30E081E090E048
:100D2000022E02C0880F991F0A94E2F7842B8C933D
:100D3000AFC0A7E3B0E0E7E3F0E08081482F8A810D
:100D4000282F30E081E090E0022E02C0880F991F2A
:100D50000A94E2F7842B8C939BC0A4E3B0E0E4E315
:100D6000F0E08081482F8A81282F30E081E090E0F8
:100D7000022E02C0880F991F0A94E2F7842B8C93ED
:100D800087C0A1E3B0E0E1E3F0E08081482F8A81F1
:100D9000282F30E081E090E0022E02C0880F991FDA
:100DA0000A94E2F7842B8C9373C08981282F30E05A
:100DB0003D832C838C819D818130910559F12C815B
:100DC0003D81223031052CF48C819D81009769F0A2
:100DD0005FC02C813D812230310589F18C819D815C
:100DE0008330910509F440C053C0AAE3B0E0EAE3C0
:100DF000F0E08081482F8A81282F30E081E090E068
:100E0000022E02C0880F991F0A94E2F7809584236E
:100E10008C933EC0A7E3B0E0E7E3F0E08081482F89
:100E20008A81282F30E081E090E0022E02C0880FF6
:100E3000991F0A94E2F7809584238C9329C0A4E338
:100E4000B0E0E4E3F0E08081482F8A81282F30E091
:100E500081E090E0022E02C0880F991F0A94E2F709
:100E6000809584238C9314C0A1E3B0E0E1E3F0E02B
:100E70008081482F8A81282F30E081E090E0022E87
:100E800002C0880F991F0A94E2F7809584238C93FF
:100E900029960FB6F894DEBF0FBECDBFCF91DF917C
:100EA0000895DF93CF93CDB7DEB729970FB6F894A7
:100EB000DEBF0FBECDBF89836A834B838B81282F12
:100EC00030E03987288788859985009709F475C0AF
:100ED000288539852130310509F0E2C08981282F24
:100EE00030E03F832E838E819F818130910549F1CF
:100EF0002E813F81223031052CF48E819F81009715
:100F000061F0CEC02E813F812230310571F18E819A
:100F10009F8183309105E9F1C3C0ABE3B0E0EBE31F
:100F2000F0E08081482F8A81282F30E081E090E036
:100F3000022E02C0880F991F0A94E2F7842B8C932B
:100F4000AFC0A8E3B0E0E8E3F0E08081482F8A81F9
:100F5000282F30E081E090E0022E02C0880F991F18
:100F60000A94E2F7842B8C939BC0A5E3B0E0E5E301
:100F7000F0E08081482F8A81282F30E081E090E0E6
:100F8000022E02C0880F991F0A94E2F7842B8C93DB
:100F900087C0A2E3B0E0E2E3F0E08081482F8A81DD
:100FA000282F30E081E090E0022E02C0880F991FC8
:100FB0000A94E2F7842B8C9373C08981282F30E048
:100FC0003D832C838C819D818130910559F12C8149
:100FD0003D81223031052CF48C819D81009769F090
:100FE0005FC02C813D812230310589F18C819D814A
:100FF0008330910509F440C053C0ABE3B0E0EBE3AC
:10100000F0E08081482F8A81282F30E081E090E055
:10101000022E02C0880F991F0A94E2F7809584235C
:101020008C933EC0A8E3B0E0E8E3F0E08081482F75
:101030008A81282F30E081E090E0022E02C0880FE4
:10104000991F0A94E2F7809584238C9329C0A5E325
:10105000B0E0E5E3F0E08081482F8A81282F30E07E
:1010600081E090E0022E02C0880F991F0A94E2F7F7
:10107000809584238C9314C0A2E3B0E0E2E3F0E017
:101080008081482F8A81282F30E081E090E0022E75
:1010900002C0880F991F0A94E2F7809584238C93ED
:1010A00029960FB6F894DEBF0FBECDBFCF91DF916A
:1010B0000895DF93CF9300D000D00F92CDB7DEB765
:1010C0008A836B838FEF89838A81282F30E03D8369
:1010D0002C834C815D814130510541F18C819D8192
:1010E0008230910534F42C813D812115310561F068
:1010F00052C04C815D814230510551F18C819D81FE
:1011000083309105B9F147C0E9E3F0E08081282FF1
:1011100030E08B81882F90E0A90102C0559547955A
:101120008A95E2F7CA018170898335C0E6E3F0E071
:101130008081282F30E08B81882F90E0A90102C0A8
:10114000559547958A95E2F7CA018170898323C036
:10115000E3E3F0E08081282F30E08B81882F90E05E
:10116000A90102C0559547958A95E2F7CA01817099
:10117000898311C0E0E3F0E08081282F30E08B818B
:10118000882F90E0A90102C0559547958A95E2F70E
:10119000CA018170898389810F900F900F900F9001
:1011A0000F90CF91DF910895DF93CF93CDB7DEB746
:1011B00028970FB6F894DEBF0FBECDBF89836A8330
:1011C0008A81282F30E038872F838F819885009778
:1011D000C9F12F8138852130310509F061C089813D
:1011E000282F30E03E832D838D819E8181309105B3
:1011F000D1F02D813E81223031052CF48D819E81EC
:10120000009761F04DC02D813E812230310581F083
:101210008D819E818330910581F042C0EAE3F0E048
:101220008FEF80833DC0E7E3F0E08FEF808338C02D
:10123000E4E3F0E08FEF808333C0E1E3F0E08FEF91
:1012400080832EC08981282F30E03C832B838B81C3
:101250009C8181309105C9F02B813C812230310580
:101260002CF48B819C81009761F01AC02B813C810A
:101270002230310571F08B819C818330910569F0BA
:101280000FC0EAE3F0E010820BC0E7E3F0E0108269
:1012900007C0E4E3F0E0108203C0E1E3F0E0108275
:1012A00028960FB6F894DEBF0FBECDBFCF91DF9169
:1012B0000895DF93CF9300D000D0CDB7DEB78983F8
:1012C0006A838981282F30E03C832B838B819C812A
:1012D00081309105D1F02B813C81223031052CF4F5
:1012E0008B819C81009761F01EC02B813C81223054
:1012F000310581F08B819C818330910581F013C091
:10130000EBE3F0E08A8180830EC0E8E3F0E08A81BD
:10131000808309C0E5E3F0E08A81808304C0E2E3D2
:10132000F0E08A8180830F900F900F900F90CF9103
:10133000DF910895DF93CF9300D000D0CDB7DEB713
:101340008A838FEF89838A81282F30E03C832B8327
:101350008B819C8181309105D1F02B813C812230A1
:1013600031052CF48B819C81009761F01EC02B818C
:101370003C812230310581F08B819C818330910545
:1013800081F013C0E9E3F0E0808189830EC0E6E3D9
:10139000F0E08081898309C0E3E3F0E08081898304
:1013A00004C0E0E3F0E08081898389810F900F9091
:1013B0000F900F90CF91DF910895DF93CF9300D0DE
:1013C00000D0CDB7DEB79A838983E981FA81808125
:1013D00061E00E94D408E981FA818181282F30E000
:1013E0003C832B838B819C81009731F02B813C8146
:1013F0002130310541F00DC0E981FA8180816FEF24
:101400000E94590906C0E981FA81808160E00E944A
:1014100059090F900F900F900F90CF91DF91089581
:10142000DF93CF9300D000D00F92CDB7DEB79A8371
:1014300089836B83E981FA818181282F30E03D83A4
:101440002C838C819D81009731F02C813D8121304E
:10145000310581F01FC0E981FA8120818B81882FBD
:1014600090E0FC01EE53FF4F9081822F692F0E9484
:10147000590910C0E981FA8120818B81882F90E081
:10148000FC01EE53FF4F8081982F9095822F692F9A
:101490000E9459090F900F900F900F900F90CF91CD
:1014A000DF910895DF93CF9300D000D0CDB7DEB7A2
:1014B0009A838983E981FA818181282F30E03C83F6
:1014C0002B838B819C81009731F02B813C812130D3
:1014D000310541F00DC0E981FA8180816FEF0E94F2
:1014E000590906C0E981FA81808160E00E945909AA
:1014F0000F900F900F900F90CF91DF910895DF9391
:10150000CF9300D000D0CDB7DEB79A838983E9812D
:10151000FA818081E981FA819181692F41E00E94FD
:101520004906E981FA818281282F30E03C832B83B0
:101530008B819C81009781F02B813C81213031058A
:10154000A9F4E981FA818081E981FA819181692F89
:1015500040E00E9451070AC0E981FA818081E98157
:10156000FA819181692F41E00E9451070F900F90FD
:101570000F900F90CF91DF910895DF93CF9300D01C
:1015800000D0CDB7DEB79A838983E981FA81828161
:10159000282F30E03C832B838B819C81009781F046
:1015A0002B813C8121303105A9F4E981FA818081C8
:1015B000E981FA819181692F41E00E9451070AC0B7
:1015C000E981FA818081E981FA819181692F40E086
:1015D0000E9451070F900F900F900F90CF91DF91C5
:1015E0000895DF93CF9300D000D0CDB7DEB79A83B4
:1015F0008983E981FA818281282F30E03C832B8323
:101600008B819C81009781F02B813C8121303105B9
:10161000A9F4E981FA818081E981FA819181692FB8
:1016200040E00E9451070AC0E981FA818081E98186
:10163000FA819181692F41E00E9451070F900F902C
:101640000F900F90CF91DF910895DF93CF93CDB797
:10165000DEB781E060E040E00E94490681E061E0A1
:1016600040E00E94490681E062E040E00E944906B5
:1016700081E063E040E00E94490681E060E041E0F3
:101680000E94510781E061E041E00E94510781E042
:1016900062E041E00E94510781E063E041E00E9486
:1016A000510781E064E041E00E94490681E065E085
:1016B00041E00E94490681E066E041E00E9449065F
:1016C00081E067E041E00E94490681E064E041E09A
:1016D0000E94510781E065E041E00E94510781E0EE
:1016E00066E041E00E94510781E067E041E00E942E
:1016F0005107CF91DF910895DF93CF93CDB7DEB738
:1017000062970FB6F894DEBF0FBECDBF8FEF8A8B06
:1017100084E0888BB7C081E0688940E00E9451076F
:101720001F86A4C081E06F850E945908898B898932
:10173000882309F098C080E090E0A8E4B2E48B87A9
:101740009C87AD87BE876B857C858D859E8520E0D7
:1017500030E04AEF54E40E941902DC01CB018F8390
:101760009887A987BA876F81788589859A8520E0CF
:1017700030E040E85FE30E941F0488232CF481E0FE
:1017800090E09E838D833FC06F81788589859A859F
:1017900020E03FEF4FE757E40E94BF0318164CF5D7
:1017A0006B857C858D859E8520E030E040E251E4AC
:1017B0000E941902DC01CB01BC01CD010E94430053
:1017C000DC01CB019E838D830FC088EC90E09C836D
:1017D0008B838B819C810197F1F79C838B838D8117
:1017E0009E8101979E838D838D819E81009769F7ED
:1017F00014C06F81788589859A850E944300DC0139
:10180000CB019E838D838D819E819A83898389817B
:101810009A810197F1F79A83898381E06F850E940D
:101820005908898B89898823D9F48F85482F50E0FE
:101830008889882F90E09C0124503040CA01880F8D
:10184000991F880F991F820F931FFC01EE54FF4FC1
:1018500080818A8B05C081E06F850E945908898B41
:1018600089898823C1F38F858F5F8F878F85843027
:1018700008F458CF81E0688941E00E9451078889C7
:101880008F5F888B8889883008F445CF8A89629673
:101890000FB6F894DEBF0FBECDBFCF91DF91089594
:1018A0000F931F93DF93CF93CDB7DEB7CC54D040C7
:1018B0000FB6F894DEBF0FBECDBF80E061E00E949E
:1018C000D40882E067E041E00E94490682E066E0D9
:1018D00041E00E94490682E065E041E00E9449063D
:1018E000FE01E75BFF4F80E090E0A8E4B2E4808374
:1018F0009183A283B3838E010B5B1F4FFE01E75BD5
:10190000FF4F608171818281938120E030E04AEF56
:1019100054E40E941902DC01CB01F8018083918319
:10192000A283B383FE01EB5BFF4F608171818281F3
:10193000938120E030E040E85FE30E941F048823A9
:1019400044F4FE01ED5BFF4F81E090E091838083E2
:1019500064C0FE01EB5BFF4F6081718182819381E6
:1019600020E03FEF4FE757E40E94BF0318160CF04A
:1019700043C0FE01E75BFF4F6081718182819381EB
:1019800020E030E040E251E40E941902DC01CB018A
:101990008E010D5B1F4FBC01CD010E944300DC0195
:1019A000CB01F801918380831FC0FE01EF5BFF4FE5
:1019B00088EC90E091838083FE01EF5BFF4F808194
:1019C00091810197F1F7FE01EF5BFF4F91838083D7
:1019D000DE01AD5BBF4FFE01ED5BFF4F808191816A
:1019E000019711969C938E93FE01ED5BFF4F8081D2
:1019F00091810097D1F624C08E010D5B1F4FFE012F
:101A0000EB5BFF4F60817181828193810E94430073
:101A1000DC01CB01F80191838083FE01ED5BFF4F78
:101A200080819181FE01FF9691838083FE01FF9664
:101A3000808191810197F1F7FE01FF969183808368
:101A400088E30E94260F80E090E0A8E4B2E48BAF28
:101A50009CAFADAFBEAF6BAD7CAD8DAD9EAD2BEA97
:101A60003AEA4AE250E40E941902DC01CB018FAB52
:101A700098AFA9AFBAAF6FA978AD89AD9AAD20E0A4
:101A800030E040E85FE30E941F0488231CF481E0FB
:101A90008EAB91C06FA978AD89AD9AAD20E030E0F2
:101AA0004FE753E40E94BF0318160CF07BC06BADE8
:101AB0007CAD8DAD9EAD20E030E04AE754E40E945D
:101AC0001303DC01CB018AAB9BABACABBDAB6AA90A
:101AD0007BA98CA99DA920E030E04AEF54E40E9444
:101AE0001902DC01CB018EA79FA7A8ABB9AB6EA5ED
:101AF0007FA588A999A920E030E040E85FE30E9433
:101B00001F0488232CF481E090E09DA78CA73FC0A0
:101B10006EA57FA588A999A920E03FEF4FE757E47C
:101B20000E94BF0318164CF56AA97BA98CA99DA930
:101B300020E030E040E251E40E941902DC01CB01D8
:101B4000BC01CD010E944300DC01CB019DA78CA705
:101B50000FC088EC90E09BA78AA78AA59BA5019758
:101B6000F1F79BA78AA78CA59DA501979DA78CA798
:101B70008CA59DA5009769F724C06EA57FA588A9AF
:101B800099A90E944300DC01CB019DA78CA78CA5DD
:101B90009DA599A788A788A599A50197F1F799A769
:101BA00088A70FC06FA978AD89AD9AAD0E94430098
:101BB000DC01CB018EAB8EA98FA38FA18A95F1F7A3
:101BC0008FA38CE00E94260F80E090E0A8E4B2E4AE
:101BD0008BA39CA3ADA3BEA36BA17CA18DA19EA151
:101BE0002BEA3AEA4AE250E40E941902DC01CB01F6
:101BF0008F8F98A3A9A3BAA36F8D78A189A19AA169
:101C000020E030E040E85FE30E941F0488231CF4DA
:101C100081E08E8F91C06F8D78A189A19AA120E07B
:101C200030E04FE753E40E94BF0318160CF07BC06E
:101C30006BA17CA18DA19EA120E030E04AE754E495
:101C40000E941303DC01CB018A8F9B8FAC8FBD8F69
:101C50006A8D7B8D8C8D9D8D20E030E04AEF54E4C1
:101C60000E941902DC01CB018E8B9F8BA88FB98F4C
:101C70006E897F89888D998D20E030E040E85FE3B0
:101C80000E941F0488232CF481E090E09D8B8C8BB4
:101C90003FC06E897F89888D998D20E03FEF4FE7A7
:101CA00057E40E94BF0318164CF56A8D7B8D8C8D0E
:101CB0009D8D20E030E040E251E40E941902DC01F9
:101CC000CB01BC01CD010E944300DC01CB019D8B07
:101CD0008C8B0FC088EC90E09B8B8A8B8A899B89C8
:101CE0000197F1F79B8B8A8B8C899D8901979D8B3E
:101CF0008C8B8C899D89009769F724C06E897F89B8
:101D0000888D998D0E944300DC01CB019D8B8C8BCB
:101D10008C899D89998B888B888999890197F1F79E
:101D2000998B888B0FC06F8D78A189A19AA10E9491
:101D30004300DC01CB018E8F8E8D8F878F858A9536
:101D4000F1F78F8781E00E94260F80E090E0A0E00D
:101D5000B0E48B879C87AD87BE876B857C858D853E
:101D60009E8520E030E04AEF54E40E941902DC0135
:101D7000CB018F839887A987BA876F8178858985FA
:101D80009A8520E030E040E85FE30E941F0488234A
:101D90002CF481E090E09E838D833FC06F81788535
:101DA00089859A8520E03FEF4FE757E40E94BF0303
:101DB00018164CF56B857C858D859E8520E030E07E
:101DC00040E251E40E941902DC01CB01BC01CD01CB
:101DD0000E944300DC01CB019E838D830FC088EC01
:101DE00090E09C838B838B819C810197F1F79C838E
:101DF0008B838D819E8101979E838D838D819E81B2
:101E0000009769F714C06F81788589859A850E944B
:101E10004300DC01CB019E838D838D819E819A835B
:101E2000898389819A810197F1F79A83898386E072
:101E30000E94260FC45BDF4F0FB6F894DEBF0FBEC3
:101E4000CDBFCF91DF911F910F910895DF93CF9375
:101E5000CDB7DEB7E1970FB6F894DEBF0FBECDBFAA
:101E600089AB82E067E040E00E94510782E066E0D3
:101E700040E00E94510780E069A90E94590982E070
:101E800065E041E00E94510780E090E0A0E8BFE3F8
:101E90008DA79EA7AFA7B8AB6DA57EA58FA598A966
:101EA0002BEA3AEA4AE250E40E941902DC01CB0133
:101EB00089A79AA7ABA7BCA769A57AA58BA59CA55E
:101EC00020E030E040E85FE30E941F0488231CF418
:101ED00081E088A791C069A57AA58BA59CA520E083
:101EE00030E04FE753E40E94BF0318160CF07BC0AC
:101EF0006DA57EA58FA598A920E030E04AE754E4BF
:101F00000E941303DC01CB018CA39DA3AEA3BFA34E
:101F10006CA17DA18EA19FA120E030E04AEF54E4A6
:101F20000E941902DC01CB0188A399A3AAA3BBA339
:101F300068A179A18AA19BA120E030E040E85FE39D
:101F40000E941F0488232CF481E090E09F8F8E8FE5
:101F50003FC068A179A18AA19BA120E03FEF4FE794
:101F600057E40E94BF0318164CF56CA17DA18EA109
:101F70009FA120E030E040E251E40E941902DC0120
:101F8000CB01BC01CD010E944300DC01CB019F8F3E
:101F90008E8F0FC088EC90E09D8F8C8F8C8D9D8DE7
:101FA0000197F1F79D8F8C8F8E8D9F8D01979F8F5D
:101FB0008E8F8E8D9F8D009769F724C068A179A1BF
:101FC0008AA19BA10E944300DC01CB019F8F8E8FD1
:101FD0008E8D9F8D9B8F8A8F8A8D9B8D0197F1F7B8
:101FE0009B8F8A8F0FC069A57AA58BA59CA50E949F
:101FF0004300DC01CB0188A788A5898F898D8A954C
:10200000F1F7898F82E065E040E00E94510780E0AF
:1020100090E0A8E4B2E48D8B9E8BAF8BB88F6D8976
:102020007E898F89988D2BEA3AEA4AE250E40E9431
:102030001902DC01CB01898B9A8BAB8BBC8B698934
:102040007A898B899C8920E030E040E85FE30E9438
:102050001F0488231CF481E0888B91C069897A89E8
:102060008B899C8920E030E04FE753E40E94BF0356
:1020700018160CF07BC06D897E898F89988D20E0C1
:1020800030E04AE754E40E941303DC01CB018C8763
:102090009D87AE87BF876C857D858E859F8520E077
:1020A00030E04AEF54E40E941902DC01CB0188873A
:1020B0009987AA87BB87688579858A859B8520E073
:1020C00030E040E85FE30E941F0488232CF481E0A5
:1020D00090E09F838E833FC0688579858A859B8544
:1020E00020E03FEF4FE757E40E94BF0318164CF57E
:1020F0006C857D858E859F8520E030E040E251E44F
:102100000E941902DC01CB01BC01CD010E944300F9
:10211000DC01CB019F838E830FC088EC90E09D8310
:102120008C838C819D810197F1F79D838C838E81B7
:102130009F8101979F838E838E819F81009769F78E
:1021400024C0688579858A859B850E944300DC01CF
:10215000CB019F838E838E819F819B838A838A811B
:102160009B810197F1F79B838A830FC069897A89E4
:102170008B899C890E944300DC01CB01888B888974
:10218000898389818A95F1F78983E1960FB6F8945E
:10219000DEBF0FBECDBFCF91DF910895DF93CF9308
:1021A000CDB7DEB7E1970FB6F894DEBF0FBECDBF57
:1021B00089AB82E067E041E00E94510782E066E07F
:1021C00040E00E94510780E069A90E94590982E01D
:1021D00065E041E00E94510780E090E0A0E8BFE3A5
:1021E0008DA79EA7AFA7B8AB6DA57EA58FA598A913
:1021F0002BEA3AEA4AE250E40E941902DC01CB01E0
:1022000089A79AA7ABA7BCA769A57AA58BA59CA50A
:1022100020E030E040E85FE30E941F0488231CF4C4
:1022200081E088A791C069A57AA58BA59CA520E02F
:1022300030E04FE753E40E94BF0318160CF07BC058
:102240006DA57EA58FA598A920E030E04AE754E46B
:102250000E941303DC01CB018CA39DA3AEA3BFA3FB
:102260006CA17DA18EA19FA120E030E04AEF54E453
:102270000E941902DC01CB0188A399A3AAA3BBA3E6
:1022800068A179A18AA19BA120E030E040E85FE34A
:102290000E941F0488232CF481E090E09F8F8E8F92
:1022A0003FC068A179A18AA19BA120E03FEF4FE741
:1022B00057E40E94BF0318164CF56CA17DA18EA1B6
:1022C0009FA120E030E040E251E40E941902DC01CD
:1022D000CB01BC01CD010E944300DC01CB019F8FEB
:1022E0008E8F0FC088EC90E09D8F8C8F8C8D9D8D94
:1022F0000197F1F79D8F8C8F8E8D9F8D01979F8F0A
:102300008E8F8E8D9F8D009769F724C068A179A16B
:102310008AA19BA10E944300DC01CB019F8F8E8F7D
:102320008E8D9F8D9B8F8A8F8A8D9B8D0197F1F764
:102330009B8F8A8F0FC069A57AA58BA59CA50E944B
:102340004300DC01CB0188A788A5898F898D8A95F8
:10235000F1F7898F82E065E040E00E94510780E05C
:1023600090E0A8E4B2E48D8B9E8BAF8BB88F6D8923
:102370007E898F89988D2BEA3AEA4AE250E40E94DE
:102380001902DC01CB01898B9A8BAB8BBC8B6989E1
:102390007A898B899C8920E030E040E85FE30E94E5
:1023A0001F0488231CF481E0888B91C069897A8995
:1023B0008B899C8920E030E04FE753E40E94BF0303
:1023C00018160CF07BC06D897E898F89988D20E06E
:1023D00030E04AE754E40E941303DC01CB018C8710
:1023E0009D87AE87BF876C857D858E859F8520E024
:1023F00030E04AEF54E40E941902DC01CB018887E7
:102400009987AA87BB87688579858A859B8520E01F
:1024100030E040E85FE30E941F0488232CF481E051
:1024200090E09F838E833FC0688579858A859B85F0
:1024300020E03FEF4FE757E40E94BF0318164CF52A
:102440006C857D858E859F8520E030E040E251E4FB
:102450000E941902DC01CB01BC01CD010E944300A6
:10246000DC01CB019F838E830FC088EC90E09D83BD
:102470008C838C819D810197F1F79D838C838E8164
:102480009F8101979F838E838E819F81009769F73B
:1024900024C0688579858A859B850E944300DC017C
:1024A000CB019F838E838E819F819B838A838A81C8
:1024B0009B810197F1F79B838A830FC069897A8991
:1024C0008B899C890E944300DC01CB01888B888921
:1024D000898389818A95F1F78983E1960FB6F8940B
:1024E000DEBF0FBECDBFCF91DF910895DF93CF93B5
:1024F00000D000D0CDB7DEB789836A838981282FC9
:1025000030E03C832B838B819C818130910531F0BD
:102510002B813C812230310531F009C08A818158FC
:102520000E94260F04C08A8181540E94260F0F90BA
:102530000F900F900F90CF91DF910895DF93CF937D
:10254000CDB7DEB727970FB6F894DEBF0FBECDBF6D
:102550008B837D836C834E832F831A828B81882F9C
:1025600090E0880F991F880F991F880F991F8A8301
:102570008A81805C0E94260F19820EC08981282FD3
:1025800030E08C819D81FC01E20FF31F80810E946D
:10259000CE1089818F5F89838981883078F38E811D
:1025A0006F810E9476128B810E94CE1027960FB603
:1025B000F894DEBF0FBECDBFCF91DF910895DF93BA
:1025C000CF9300D000D00F92CDB7DEB78B837D8341
:1025D0006C831A828B81882F90E0880F991F880F57
:1025E000991F880F991F8A838A81805C0E94260F19
:1025F00019820EC08981282F30E08C819D81FC01D9
:10260000E20FF31F80810E94CE1089818F5F898342
:102610008981883078F30F900F900F900F900F9072
:10262000CF91DF910895DF93CF93CDB7DEB7619758
:102630000FB6F894DEBF0FBECDBF998B888B1F8677
:1026400080C08F85282F30E088899989FC01E20FAE
:10265000F31F80810E94CE108F858F5F8F8780E06F
:1026600090E0A0E0B0E48B879C87AD87BE876B8548
:102670007C858D859E8520E030E04AEF54E40E9401
:102680001902DC01CB018F839887A987BA876F81F4
:10269000788589859A8520E030E040E85FE30E94F4
:1026A0001F0488232CF481E090E09E838D833FC03B
:1026B0006F81788589859A8520E03FEF4FE757E461
:1026C0000E94BF0318164CF56B857C858D859E8511
:1026D00020E030E040E251E40E941902DC01CB012D
:1026E000BC01CD010E944300DC01CB019E838D83A0
:1026F0000FC088EC90E09C838B838B819C81019739
:10270000F1F79C838B838D819E8101979E838D83BE
:102710008D819E81009769F714C06F8178858985C6
:102720009A850E944300DC01CB019E838D838D81BD
:102730009E819A83898389819A810197F1F79A838F
:1027400089838F85282F30E088899989FC01E20FE1
:10275000F31F8081882309F074CF61960FB6F89437
:10276000DEBF0FBECDBFCF91DF910895DF93CF9332
:10277000CDB7DEB766970FB6F894DEBF0FBECDBFFC
:102780006B8B7C8B8D8B9E8B8B899C89AD89BE8955
:102790000097A105B10509F49EC01B821A82198217
:1027A00031C08B899C89AD89BE892AE030E040E048
:1027B00050E0BC01CD010E945118DC01CB018C839B
:1027C0009D83AE83BF838B81282F30E04C81CE0167
:1027D0000896FC01E20FF31F40838B818F5F8B8390
:1027E0008B899C89AD89BE892AE030E040E050E0C9
:1027F000BC01CD010E945118DA01C9018B8B9C8B61
:10280000AD8BBE8B8B899C89AD89BE890097A10554
:10281000B10539F68B81282F30E0CE010896FC01F6
:10282000E20FF31F88E780838B8181508B8333C055
:102830008A81282F30E0CE010896FC01E20FF31FB9
:102840008081882F90E0A0E0B0E08C839D83AE83F0
:10285000BF838A81482F50E08B81282F30E0CE0142
:102860000896FC01E20FF31F2081CE010896FC01BF
:10287000E40FF51F20838B81282F30E04C81CE019F
:102880000896FC01E20FF31F40838A818F5F8A83E1
:102890008B8181508B839A818B81981748F20FC06E
:1028A0008981282F30E0CE010896FC01E20FF31F4A
:1028B0008081805D0E94CE1089818F5F89838981AC
:1028C000282F30E0CE010896FC01E20FF31F808133
:1028D000883731F703C080E30E94CE1066960FB6AA
:1028E000F894DEBF0FBECDBFCF91DF910895DF9387
:1028F000CF93CDB7DEB781E00E94260FCF91DF9155
:102900000895EF92FF920F931F93DF93CF93CDB76C
:10291000DEB7C355D0400FB6F894DEBF0FBECDBFB3
:102920000E94500C0E94250B84E1FE01FE96DF01FF
:10293000E82E1D92EA94E9F71DAE19AE1AAE1BAE51
:102940001CAE1DAA1EAA1FAA18AE19AA1AAA1BAA53
:102950001CAA81E061E00E94761280E690E00E946D
:10296000131380E090E0AAEFB3E48FA398A7A9A780
:10297000BAA76FA178A589A59AA520E030E04AEF13
:1029800054E40E941902DC01CB018BA39CA3ADA3EC
:10299000BEA36BA17CA18DA19EA120E030E040E808
:1029A0005FE30E941F0488232CF481E090E09AA347
:1029B00089A33FC06BA17CA18DA19EA120E03FEF28
:1029C0004FE757E40E94BF0318164CF56FA178A596
:1029D00089A59AA520E030E040E251E40E94190266
:1029E000DC01CB01BC01CD010E944300DC01CB0125
:1029F0009AA389A30FC088EC90E098A38F8F8F8D46
:102A000098A10197F1F798A38F8F89A19AA10197B7
:102A10009AA389A389A19AA1009769F714C06BA111
:102A20007CA18DA19EA10E944300DC01CB019AA351
:102A300089A389A19AA19E8F8D8F8D8D9E8D0197DF
:102A4000F1F79E8F8D8F0E947C0B8FA78FA58F3FF4
:102A5000D1F38FA5833481F08DAD282F30E0CE01E6
:102A6000CE96FC01E20FF31F8FA580838DAD8F5FA3
:102A70008DAF8FA50E94CE108FA58D3309F051C266
:102A800080E090E0AAEFB3E4898F9A8FAB8FBC8F80
:102A9000698D7A8D8B8D9C8D20E030E04AEF54E477
:102AA0000E941902DC01CB018D8B9E8BAF8BB88FFE
:102AB0006D897E898F89988D20E030E040E85FE362
:102AC0000E941F0488232CF481E090E09C8B8B8B68
:102AD0003FC06D897E898F89988D20E03FEF4FE759
:102AE00057E40E94BF0318164CF5698D7A8D8B8DC3
:102AF0009C8D20E030E040E251E40E941902DC01AC
:102B0000CB01BC01CD010E944300DC01CB019C8BB9
:102B10008B8B0FC088EC90E09A8B898B89899A897E
:102B20000197F1F79A8B898B8B899C8901979C8BF4
:102B30008B8B8B899C89009769F714C06D897E897E
:102B40008F89988D0E944300DC01CB019C8B8B8B7D
:102B50008B899C89988B8F878F8598890197F1F74E
:102B6000988B8F878DAD8130C1F482E061E00E9447
:102B700076128AE690E00E94131381E090E0CD5A2D
:102B8000DF4F0FB6F894DEBF0FBECDBFCF91DF9100
:102B90001F910F91FF90EF9008951EA6BCC18EA5C6
:102BA000282F30E0CE01CE96FC01E20FF31F80818A
:102BB0008B3211F18EA5282F30E0CE01CE96FC018C
:102BC000E20FF31F80818D32B9F08EA5282F30E0FF
:102BD000CE01CE96FC01E20FF31F80818A3261F0B4
:102BE0008EA5282F30E0CE01CE96FC01E20FF31F18
:102BF00080818F3209F08CC18EA5282F30E0CE0164
:102C0000CE96FC01E20FF31F808188AB1DA629C080
:102C10008DA99EA9AFA9B8AD2AE030E040E050E010
:102C2000BC01CD010E943218AB01BC018DA5282F3B
:102C300030E0CE01CE96FC01E20FF31F8081882F99
:102C400090E0C097AA2797FDA095BA2F840F951FF3
:102C5000A61FB71F8DAB9EABAFABB8AF8DA58F5F77
:102C60008DA79DA58EA5981798F28EA58F5F8CA72E
:102C700029C089A99AA9ABA9BCA92AE030E040E003
:102C800050E0BC01CD010E943218AB01BC018CA503
:102C9000282F30E0CE01CE96FC01E20FF31F808199
:102CA000882F90E0C097AA2797FDA095BA2F840F90
:102CB000951FA61FB71F89AB9AABABABBCAB8CA55E
:102CC0008F5F8CA78CA5282F30E08DAD882F90E0EA
:102CD0000197281739076CF20E94771488A9082FEA
:102CE00010E064961FAF0EAF649764962EAD3FADB3
:102CF00064972B32310501F164968EAD9FAD6497D8
:102D00008C3291054CF46496AEADBFAD6497AA3297
:102D1000B10509F47BC0F3C064960EAD1FAD649796
:102D20000D321105E9F164962EAD3FAD64972F3257
:102D3000310509F49FC0E3C019AE1AAE1BAE1CAE3C
:102D40002DA93EA94FA958AD89A99AA9ABA9BCA99B
:102D5000820F931FA41FB51F89AF9AAFABAFBCAF53
:102D60000E94771481E061E00E94761288E790E08B
:102D70000E94131382E061E00E94761289AD9AAD41
:102D8000ABADBCADBC01CD010E94B6131DAE1DAAFA
:102D90001EAA1FAA18AE19AA1AAA1BAA1CAA53CEA9
:102DA00019AE1AAE1BAE1CAE2DA93EA94FA958AD47
:102DB00089A99AA9ABA9BCA979018A01E81AF90ADB
:102DC0000A0B1B0BD801C70189AF9AAFABAFBCAFE1
:102DD00081E061E00E94761288E790E00E94131380
:102DE00082E061E00E94761289AD9AADABADBCADD8
:102DF000BC01CD010E94B6131DAE1DAA1EAA1FAABA
:102E000018AE19AA1AAA1BAA1CAA1DCE19AE1AAE70
:102E10001BAE1CAE8DA99EA9AFA9B8AD29A93AA930
:102E20004BA95CA9BC01CD010E943218DC01CB0189
:102E300089AF9AAFABAFBCAF81E061E00E94761280
:102E400088E790E00E94131382E061E00E9476120E
:102E500089AD9AADABADBCADBC01CD010E94B6133E
:102E60001DAE1DAA1EAA1FAA18AE19AA1AAA1BAA2D
:102E70001CAAE9CD19AE1AAE1BAE1CAE89A99AA93F
:102E8000ABA9BCA90097A105B10549F482E061E0B6
:102E90000E94761284E890E00E94131326C08DA948
:102EA0009EA9AFA9B8AD29A93AA94BA95CA9BC01B3
:102EB000CD010E945118DA01C90189AF9AAFABAFB9
:102EC000BCAF81E061E00E94761288E790E00E944A
:102ED000131382E061E00E94761289AD9AADABAD2A
:102EE000BCADBC01CD010E94B6131DAE1DAA1EAA29
:102EF0001FAA18AE19AA1AAA1BAA1CAAA4CD82E05E
:102F000061E00E9476128FE890E00E9413139BCD3F
:102F10008EA58F5F8EA79EA58DAD981708F43FCE26
:102F200092CD8FA5833409F08ECD81E061E00E94BF
:102F300076120E9477148CE990E00E94131380E0CF
:102F400090E0AAEFB3E48B879C87AD87BE876B8543
:102F50007C858D859E8520E030E04AEF54E40E9418
:102F60001902DC01CB018F839887A987BA876F810B
:102F7000788589859A8520E030E040E85FE30E940B
:102F80001F0488232CF481E090E09E838D833FC052
:102F90006F81788589859A8520E03FEF4FE757E478
:102FA0000E94BF0318164CF56B857C858D859E8528
:102FB00020E030E040E251E40E941902DC01CB0144
:102FC000BC01CD010E944300DC01CB019E838D83B7
:102FD0000FC088EC90E09C838B838B819C81019750
:102FE000F1F79C838B838D819E8101979E838D83D6
:102FF0008D819E81009769F714C06F8178858985DE
:103000009A850E944300DC01CB019E838D838D81D4
:103010009E819A83898389819A810197F1F79A83A6
:1030200089830E94771419AE1AAE1BAE1CAE1DAA7E
:103030001EAA1FAA18AE19AA1AAA1BAA1CAA1DAE5C
:103040001BA60CC08BA5282F30E0CE01CE96FC012C
:10305000E20FF31F10828BA58F5F8BA78BA58431A6
:1030600088F3F1CC629FD001739FF001829FE00D45
:10307000F11D649FE00DF11D929FF00D839FF00DF7
:10308000749FF00D659FF00D9927729FB00DE11DA3
:10309000F91F639FB00DE11DF91FBD01CF01112480
:1030A0000895A1E21A2EAA1BBB1BFD010DC0AA1F89
:1030B000BB1FEE1FFF1FA217B307E407F50720F0A1
:1030C000A21BB30BE40BF50B661F771F881F991F1C
:1030D0001A9469F760957095809590959B01AC0165
:1030E000BD01CF0108952F923F924F925F926F9250
:1030F0007F928F929F92AF92BF92CF92DF92EF9288
:10310000FF920F931F93CF93DF93CDB7DEB7CA1B08
:10311000DB0B0FB6F894DEBF0FBECDBF09942A8833
:10312000398848885F846E847D848C849B84AA84DB
:10313000B984C884DF80EE80FD800C811B81AA8168
:10314000B981CE0FD11D0FB6F894DEBF0FBECDBF33
:08315000ED010895F894FFCF92
:1031580057656C636F6D65212100496E76616C69F6
:103168006420457175212100546865205265737586
:103178006C743A00556E646566696E656421004931
:103188006E76616C6964204F70212100436C656123
:103198007220446973706C617900000000000000BF
:1031A80000003738392F3435362A3132332D433041
:1031B8003D2B3F065B4F666D7D077F6F3F065B4F7C
:0631C800666D7D077F6FBC
:00000001FF
